{
    "abi": [
        {
            "type": "constructor",
            "inputs": [
                {
                    "name": "initialSupply",
                    "type": "uint256",
                    "internalType": "uint256"
                }
            ],
            "stateMutability": "nonpayable"
        },
        {
            "type": "function",
            "name": "BLOCKS_PER_YEAR",
            "inputs": [],
            "outputs": [
                {
                    "name": "",
                    "type": "uint256",
                    "internalType": "uint256"
                }
            ],
            "stateMutability": "view"
        },
        {
            "type": "function",
            "name": "MAX_HALVINGS",
            "inputs": [],
            "outputs": [
                {
                    "name": "",
                    "type": "uint256",
                    "internalType": "uint256"
                }
            ],
            "stateMutability": "view"
        },
        {
            "type": "function",
            "name": "TAIL_EMISSION_PERCENTAGE",
            "inputs": [],
            "outputs": [
                {
                    "name": "",
                    "type": "uint256",
                    "internalType": "uint256"
                }
            ],
            "stateMutability": "view"
        },
        {
            "type": "function",
            "name": "allowance",
            "inputs": [
                {
                    "name": "owner",
                    "type": "address",
                    "internalType": "address"
                },
                {
                    "name": "spender",
                    "type": "address",
                    "internalType": "address"
                }
            ],
            "outputs": [
                {
                    "name": "",
                    "type": "uint256",
                    "internalType": "uint256"
                }
            ],
            "stateMutability": "view"
        },
        {
            "type": "function",
            "name": "approve",
            "inputs": [
                {
                    "name": "spender",
                    "type": "address",
                    "internalType": "address"
                },
                {
                    "name": "amount",
                    "type": "uint256",
                    "internalType": "uint256"
                }
            ],
            "outputs": [
                {
                    "name": "",
                    "type": "bool",
                    "internalType": "bool"
                }
            ],
            "stateMutability": "nonpayable"
        },
        {
            "type": "function",
            "name": "balanceOf",
            "inputs": [
                {
                    "name": "account",
                    "type": "address",
                    "internalType": "address"
                }
            ],
            "outputs": [
                {
                    "name": "",
                    "type": "uint256",
                    "internalType": "uint256"
                }
            ],
            "stateMutability": "view"
        },
        {
            "type": "function",
            "name": "calculateTarget",
            "inputs": [],
            "outputs": [
                {
                    "name": "",
                    "type": "uint256",
                    "internalType": "uint256"
                }
            ],
            "stateMutability": "view"
        },
        {
            "type": "function",
            "name": "dampeningFactor",
            "inputs": [],
            "outputs": [
                {
                    "name": "",
                    "type": "uint256",
                    "internalType": "uint256"
                }
            ],
            "stateMutability": "view"
        },
        {
            "type": "function",
            "name": "decimals",
            "inputs": [],
            "outputs": [
                {
                    "name": "",
                    "type": "uint8",
                    "internalType": "uint8"
                }
            ],
            "stateMutability": "view"
        },
        {
            "type": "function",
            "name": "decreaseAllowance",
            "inputs": [
                {
                    "name": "spender",
                    "type": "address",
                    "internalType": "address"
                },
                {
                    "name": "subtractedValue",
                    "type": "uint256",
                    "internalType": "uint256"
                }
            ],
            "outputs": [
                {
                    "name": "",
                    "type": "bool",
                    "internalType": "bool"
                }
            ],
            "stateMutability": "nonpayable"
        },
        {
            "type": "function",
            "name": "difficulty",
            "inputs": [],
            "outputs": [
                {
                    "name": "",
                    "type": "uint256",
                    "internalType": "uint256"
                }
            ],
            "stateMutability": "view"
        },
        {
            "type": "function",
            "name": "getCurrentReward",
            "inputs": [],
            "outputs": [
                {
                    "name": "",
                    "type": "uint256",
                    "internalType": "uint256"
                }
            ],
            "stateMutability": "view"
        },
        {
            "type": "function",
            "name": "halvingCount",
            "inputs": [],
            "outputs": [
                {
                    "name": "",
                    "type": "uint256",
                    "internalType": "uint256"
                }
            ],
            "stateMutability": "view"
        },
        {
            "type": "function",
            "name": "halvingInterval",
            "inputs": [],
            "outputs": [
                {
                    "name": "",
                    "type": "uint256",
                    "internalType": "uint256"
                }
            ],
            "stateMutability": "view"
        },
        {
            "type": "function",
            "name": "increaseAllowance",
            "inputs": [
                {
                    "name": "spender",
                    "type": "address",
                    "internalType": "address"
                },
                {
                    "name": "addedValue",
                    "type": "uint256",
                    "internalType": "uint256"
                }
            ],
            "outputs": [
                {
                    "name": "",
                    "type": "bool",
                    "internalType": "bool"
                }
            ],
            "stateMutability": "nonpayable"
        },
        {
            "type": "function",
            "name": "lastMintTime",
            "inputs": [],
            "outputs": [
                {
                    "name": "",
                    "type": "uint256",
                    "internalType": "uint256"
                }
            ],
            "stateMutability": "view"
        },
        {
            "type": "function",
            "name": "mine",
            "inputs": [
                {
                    "name": "signature",
                    "type": "bytes",
                    "internalType": "bytes"
                },
                {
                    "name": "nonce",
                    "type": "address",
                    "internalType": "address"
                },
                {
                    "name": "recipient",
                    "type": "address",
                    "internalType": "address"
                }
            ],
            "outputs": [],
            "stateMutability": "nonpayable"
        },
        {
            "type": "function",
            "name": "miningReward",
            "inputs": [],
            "outputs": [
                {
                    "name": "",
                    "type": "uint256",
                    "internalType": "uint256"
                }
            ],
            "stateMutability": "view"
        },
        {
            "type": "function",
            "name": "name",
            "inputs": [],
            "outputs": [
                {
                    "name": "",
                    "type": "string",
                    "internalType": "string"
                }
            ],
            "stateMutability": "view"
        },
        {
            "type": "function",
            "name": "nextHalvingAt",
            "inputs": [],
            "outputs": [
                {
                    "name": "",
                    "type": "uint256",
                    "internalType": "uint256"
                }
            ],
            "stateMutability": "view"
        },
        {
            "type": "function",
            "name": "owner",
            "inputs": [],
            "outputs": [
                {
                    "name": "",
                    "type": "address",
                    "internalType": "address"
                }
            ],
            "stateMutability": "view"
        },
        {
            "type": "function",
            "name": "recoverSigner",
            "inputs": [
                {
                    "name": "signature",
                    "type": "bytes",
                    "internalType": "bytes"
                },
                {
                    "name": "nonce",
                    "type": "address",
                    "internalType": "address"
                }
            ],
            "outputs": [
                {
                    "name": "",
                    "type": "address",
                    "internalType": "address"
                }
            ],
            "stateMutability": "pure"
        },
        {
            "type": "function",
            "name": "renounceOwnership",
            "inputs": [],
            "outputs": [],
            "stateMutability": "nonpayable"
        },
        {
            "type": "function",
            "name": "symbol",
            "inputs": [],
            "outputs": [
                {
                    "name": "",
                    "type": "string",
                    "internalType": "string"
                }
            ],
            "stateMutability": "view"
        },
        {
            "type": "function",
            "name": "totalSupply",
            "inputs": [],
            "outputs": [
                {
                    "name": "",
                    "type": "uint256",
                    "internalType": "uint256"
                }
            ],
            "stateMutability": "view"
        },
        {
            "type": "function",
            "name": "transfer",
            "inputs": [
                {
                    "name": "to",
                    "type": "address",
                    "internalType": "address"
                },
                {
                    "name": "amount",
                    "type": "uint256",
                    "internalType": "uint256"
                }
            ],
            "outputs": [
                {
                    "name": "",
                    "type": "bool",
                    "internalType": "bool"
                }
            ],
            "stateMutability": "nonpayable"
        },
        {
            "type": "function",
            "name": "transferFrom",
            "inputs": [
                {
                    "name": "from",
                    "type": "address",
                    "internalType": "address"
                },
                {
                    "name": "to",
                    "type": "address",
                    "internalType": "address"
                },
                {
                    "name": "amount",
                    "type": "uint256",
                    "internalType": "uint256"
                }
            ],
            "outputs": [
                {
                    "name": "",
                    "type": "bool",
                    "internalType": "bool"
                }
            ],
            "stateMutability": "nonpayable"
        },
        {
            "type": "function",
            "name": "transferOwnership",
            "inputs": [
                {
                    "name": "newOwner",
                    "type": "address",
                    "internalType": "address"
                }
            ],
            "outputs": [],
            "stateMutability": "nonpayable"
        },
        {
            "type": "function",
            "name": "usedNonces",
            "inputs": [
                {
                    "name": "",
                    "type": "address",
                    "internalType": "address"
                }
            ],
            "outputs": [
                {
                    "name": "",
                    "type": "bool",
                    "internalType": "bool"
                }
            ],
            "stateMutability": "view"
        },
        {
            "type": "function",
            "name": "verifyPoW",
            "inputs": [
                {
                    "name": "nonce",
                    "type": "address",
                    "internalType": "address"
                }
            ],
            "outputs": [
                {
                    "name": "",
                    "type": "bool",
                    "internalType": "bool"
                }
            ],
            "stateMutability": "nonpayable"
        },
        {
            "type": "function",
            "name": "withdrawERC20",
            "inputs": [
                {
                    "name": "tokenAddress",
                    "type": "address",
                    "internalType": "address"
                },
                {
                    "name": "amount",
                    "type": "uint256",
                    "internalType": "uint256"
                }
            ],
            "outputs": [],
            "stateMutability": "nonpayable"
        },
        {
            "type": "function",
            "name": "withdrawERC721",
            "inputs": [
                {
                    "name": "tokenAddress",
                    "type": "address",
                    "internalType": "address"
                },
                {
                    "name": "tokenId",
                    "type": "uint256",
                    "internalType": "uint256"
                }
            ],
            "outputs": [],
            "stateMutability": "nonpayable"
        },
        {
            "type": "function",
            "name": "withdrawETH",
            "inputs": [
                {
                    "name": "_to",
                    "type": "address",
                    "internalType": "address payable"
                }
            ],
            "outputs": [],
            "stateMutability": "nonpayable"
        },
        {
            "type": "event",
            "name": "Approval",
            "inputs": [
                {
                    "name": "owner",
                    "type": "address",
                    "indexed": true,
                    "internalType": "address"
                },
                {
                    "name": "spender",
                    "type": "address",
                    "indexed": true,
                    "internalType": "address"
                },
                {
                    "name": "value",
                    "type": "uint256",
                    "indexed": false,
                    "internalType": "uint256"
                }
            ],
            "anonymous": false
        },
        {
            "type": "event",
            "name": "OwnershipTransferred",
            "inputs": [
                {
                    "name": "previousOwner",
                    "type": "address",
                    "indexed": true,
                    "internalType": "address"
                },
                {
                    "name": "newOwner",
                    "type": "address",
                    "indexed": true,
                    "internalType": "address"
                }
            ],
            "anonymous": false
        },
        {
            "type": "event",
            "name": "Transfer",
            "inputs": [
                {
                    "name": "from",
                    "type": "address",
                    "indexed": true,
                    "internalType": "address"
                },
                {
                    "name": "to",
                    "type": "address",
                    "indexed": true,
                    "internalType": "address"
                },
                {
                    "name": "value",
                    "type": "uint256",
                    "indexed": false,
                    "internalType": "uint256"
                }
            ],
            "anonymous": false
        }
    ],
    "bytecode": {
        "object": "0x6080604052600360065560096008556801bc16d674ec800000600955621410c0600a556000600b55600a544362000037919062000215565b600c553480156200004757600080fd5b50604051620019b6380380620019b68339810160408190526200006a916200023d565b604051806040016040528060058152602001644e6578757360d81b815250604051806040016040528060038152602001624e585360e81b8152508160039081620000b59190620002fd565b506004620000c48282620002fd565b505050620000e1620000db620000f460201b60201c565b620000f8565b620000ed33826200014a565b50620003c9565b3390565b600580546001600160a01b038381166001600160a01b0319831681179093556040519116919082907f8be0079c531659141344cd1fd0a4f28419497f9722a3daafe3b4186f6b6457e090600090a35050565b6001600160a01b038216620001a55760405162461bcd60e51b815260206004820152601f60248201527f45524332303a206d696e7420746f20746865207a65726f206164647265737300604482015260640160405180910390fd5b8060026000828254620001b9919062000215565b90915550506001600160a01b038216600081815260208181526040808320805486019055518481527fddf252ad1be2c89b69c2b068fc378daa952ba7f163c4a11628f55a4df523b3ef910160405180910390a35050565b505050565b808201808211156200023757634e487b7160e01b600052601160045260246000fd5b92915050565b6000602082840312156200025057600080fd5b5051919050565b634e487b7160e01b600052604160045260246000fd5b600181811c908216806200028257607f821691505b602082108103620002a357634e487b7160e01b600052602260045260246000fd5b50919050565b601f82111562000210576000816000526020600020601f850160051c81016020861015620002d45750805b601f850160051c820191505b81811015620002f557828155600101620002e0565b505050505050565b81516001600160401b0381111562000319576200031962000257565b62000331816200032a84546200026d565b84620002a9565b602080601f831160018114620003695760008415620003505750858301515b600019600386901b1c1916600185901b178555620002f5565b600085815260208120601f198616915b828110156200039a5788860151825594840194600190910190840162000379565b5085821015620003b95787850151600019600388901b60f8161c191681555b5050505050600190811b01905550565b6115dd80620003d96000396000f3fe608060405234801561001057600080fd5b50600436106101fb5760003560e01c80637f3e212d1161011a578063adeb0d88116100ad578063dd62ed3e1161007c578063dd62ed3e146103cd578063e698fbcb146103e0578063f2fde38b14610403578063f3e414f814610416578063fc84d9131461042957600080fd5b8063adeb0d8814610395578063d37db1d2146103a8578063d9535172146103b2578063dcb157a6146103c557600080fd5b80639d463520116100e95780639d46352014610353578063a1db97821461035c578063a457c2d71461036f578063a9059cbb1461038257600080fd5b80637f3e212d146103155780638aec85421461031e5780638da5cb5b1461032657806395d89b411461034b57600080fd5b8063313ce56711610192578063690d832011610161578063690d8320146102c65780636a47aa06146102db57806370a08231146102e4578063715018a61461030d57600080fd5b8063313ce5671461029357806336f1e6c0146102a257806339509351146102aa5780634ac2d103146102bd57600080fd5b806319cae462116101ce57806319cae4621461025c5780631ba489ea146102655780631cfce3861461027857806323b872dd1461028057600080fd5b8063016a62411461020057806306fdde031461021c578063095ea7b31461023157806318160ddd14610254575b600080fd5b610209600c5481565b6040519081526020015b60405180910390f35b610224610432565b60405161021391906111cb565b61024461023f36600461122f565b6104c4565b6040519015158152602001610213565b600254610209565b61020960065481565b61024461027336600461125b565b6104de565b6102096105bc565b61024461028e36600461127f565b6105f2565b60405160128152602001610213565b610209600c81565b6102446102b836600461122f565b610616565b61020960095481565b6102d96102d436600461125b565b610638565b005b610209600a5481565b6102096102f236600461125b565b6001600160a01b031660009081526020819052604090205490565b6102d96106da565b61020960085481565b6102096106ee565b6005546001600160a01b03165b6040516001600160a01b039091168152602001610213565b610224610733565b61020960075481565b6102d961036a36600461122f565b610742565b61024461037d36600461122f565b610802565b61024461039036600461122f565b61087d565b6103336103a3366004611363565b61088b565b61020962f099c081565b6102d96103c03660046113b5565b610989565b610209600381565b6102096103db366004611419565b610a62565b6102446103ee36600461125b565b600d6020526000908152604090205460ff1681565b6102d961041136600461125b565b610a8d565b6102d961042436600461122f565b610b06565b610209600b5481565b60606003805461044190611447565b80601f016020809104026020016040519081016040528092919081815260200182805461046d90611447565b80156104ba5780601f1061048f576101008083540402835291602001916104ba565b820191906000526020600020905b81548152906001019060200180831161049d57829003601f168201915b5050505050905090565b6000336104d2818585610b7b565b60019150505b92915050565b6001600160a01b0381166000908152600d602052604081205460ff16156105415760405162461bcd60e51b8152602060048201526012602482015271139bdb98d948185b1c9958591e481d5cd95960721b60448201526064015b60405180910390fd5b6040516bffffffffffffffffffffffff19606084901b16602082015260009060340160405160208183030381529060405280519060200120905060006105856105bc565b905080821080156105b4576001600160a01b0385166000908152600d60205260409020805460ff191660011790555b949350505050565b6006546000907d0597a7e03ca484679197fbc312c8120b53a983aad3362bc462536a998a38906105ec90826114ad565b91505090565b600033610600858285610c9f565b61060b858585610d13565b506001949350505050565b6000336104d28185856106298383610a62565b61063391906114c1565b610b7b565b610640610eb7565b6000816001600160a01b03164760405160006040518083038185875af1925050503d806000811461068d576040519150601f19603f3d011682016040523d82523d6000602084013e610692565b606091505b50509050806106d65760405162461bcd60e51b815260206004820152601060248201526f2a3930b739b332b9103330b4b632b21760811b6044820152606401610538565b5050565b6106e2610eb7565b6106ec6000610f11565b565b6000600c600b541061072c5760006064600361070960025490565b61071391906114d4565b61071d91906114ad565b90506105ec62f099c0826114ad565b5060095490565b60606004805461044190611447565b61074a610eb7565b60405163a9059cbb60e01b81523360048201526024810182905282906001600160a01b0382169063a9059cbb906044016020604051808303816000875af1158015610799573d6000803e3d6000fd5b505050506040513d601f19601f820116820180604052508101906107bd91906114eb565b6107fd5760405162461bcd60e51b815260206004820152601160248201527015da5d1a191c985dd85b0819985a5b1959607a1b6044820152606401610538565b505050565b600033816108108286610a62565b9050838110156108705760405162461bcd60e51b815260206004820152602560248201527f45524332303a2064656372656173656420616c6c6f77616e63652062656c6f77604482015264207a65726f60d81b6064820152608401610538565b61060b8286868403610b7b565b6000336104d2818585610d13565b604080516bffffffffffffffffffffffff19606084901b16602080830191909152825180830360140181526034830184528051908201207f19457468657265756d205369676e6564204d6573736167653a0a3332000000006054840152607080840182905284518085039091018152609090930190935281519101206000919082808061091788610f63565b60408051600081526020810180835289905260ff8316918101919091526060810184905260808101839052929550909350915060019060a0016020604051602081039080840390855afa158015610972573d6000803e3d6000fd5b5050604051601f1901519998505050505050505050565b610992826104de565b6109cc5760405162461bcd60e51b815260206004820152600b60248201526a496e76616c696420506f5760a81b6044820152606401610538565b60006109d8848461088b565b9050826001600160a01b0316816001600160a01b031614610a3b5760405162461bcd60e51b815260206004820152601d60248201527f5369676e617475726520766572696669636174696f6e206661696c65640000006044820152606401610538565b610a4c82610a476106ee565b610fec565b610a546110ab565b610a5c61113d565b50505050565b6001600160a01b03918216600090815260016020908152604080832093909416825291909152205490565b610a95610eb7565b6001600160a01b038116610afa5760405162461bcd60e51b815260206004820152602660248201527f4f776e61626c653a206e6577206f776e657220697320746865207a65726f206160448201526564647265737360d01b6064820152608401610538565b610b0381610f11565b50565b610b0e610eb7565b604051632142170760e11b81523060048201523360248201526044810182905282906001600160a01b038216906342842e0e90606401600060405180830381600087803b158015610b5e57600080fd5b505af1158015610b72573d6000803e3d6000fd5b50505050505050565b6001600160a01b038316610bdd5760405162461bcd60e51b8152602060048201526024808201527f45524332303a20617070726f76652066726f6d20746865207a65726f206164646044820152637265737360e01b6064820152608401610538565b6001600160a01b038216610c3e5760405162461bcd60e51b815260206004820152602260248201527f45524332303a20617070726f766520746f20746865207a65726f206164647265604482015261737360f01b6064820152608401610538565b6001600160a01b0383811660008181526001602090815260408083209487168084529482529182902085905590518481527f8c5be1e5ebec7d5bd14f71427d1e84f3dd0314c0f7b2291e5b200ac8c7c3b925910160405180910390a3505050565b6000610cab8484610a62565b90506000198114610a5c5781811015610d065760405162461bcd60e51b815260206004820152601d60248201527f45524332303a20696e73756666696369656e7420616c6c6f77616e63650000006044820152606401610538565b610a5c8484848403610b7b565b6001600160a01b038316610d775760405162461bcd60e51b815260206004820152602560248201527f45524332303a207472616e736665722066726f6d20746865207a65726f206164604482015264647265737360d81b6064820152608401610538565b6001600160a01b038216610dd95760405162461bcd60e51b815260206004820152602360248201527f45524332303a207472616e7366657220746f20746865207a65726f206164647260448201526265737360e81b6064820152608401610538565b6001600160a01b03831660009081526020819052604090205481811015610e515760405162461bcd60e51b815260206004820152602660248201527f45524332303a207472616e7366657220616d6f756e7420657863656564732062604482015265616c616e636560d01b6064820152608401610538565b6001600160a01b03848116600081815260208181526040808320878703905593871680835291849020805487019055925185815290927fddf252ad1be2c89b69c2b068fc378daa952ba7f163c4a11628f55a4df523b3ef910160405180910390a3610a5c565b6005546001600160a01b031633146106ec5760405162461bcd60e51b815260206004820181905260248201527f4f776e61626c653a2063616c6c6572206973206e6f7420746865206f776e65726044820152606401610538565b600580546001600160a01b038381166001600160a01b0319831681179093556040519116919082907f8be0079c531659141344cd1fd0a4f28419497f9722a3daafe3b4186f6b6457e090600090a35050565b60008060008351604114610fb95760405162461bcd60e51b815260206004820152601860248201527f496e76616c6964207369676e6174757265206c656e67746800000000000000006044820152606401610538565b50505060208101516040820151606083015160001a601b811015610fe557610fe2601b8261150d565b90505b9193909250565b6001600160a01b0382166110425760405162461bcd60e51b815260206004820152601f60248201527f45524332303a206d696e7420746f20746865207a65726f2061646472657373006044820152606401610538565b806002600082825461105491906114c1565b90915550506001600160a01b038216600081815260208181526040808320805486019055518481527fddf252ad1be2c89b69c2b068fc378daa952ba7f163c4a11628f55a4df523b3ef910160405180910390a35050565b6000600754426110bb9190611526565b600854909150603c906000906110d18385611539565b6110db9190611560565b90506000811380156110ef57506001600654115b15611112576001600660008282546111079190611526565b909155506111349050565b60008112156111345760016006600082825461112e91906114c1565b90915550505b50504260075550565b600c600b54101561117a5760026009600082825461115b91906114ad565b9091555050600b80549060006111708361158e565b919050555061119f565b6064600361118760025490565b61119191906114d4565b61119b91906114ad565b6009555b600c600b54036111b0576000600c55565b600a54600c60008282546111c491906114c1565b9091555050565b60006020808352835180602085015260005b818110156111f9578581018301518582016040015282016111dd565b506000604082860101526040601f19601f8301168501019250505092915050565b6001600160a01b0381168114610b0357600080fd5b6000806040838503121561124257600080fd5b823561124d8161121a565b946020939093013593505050565b60006020828403121561126d57600080fd5b81356112788161121a565b9392505050565b60008060006060848603121561129457600080fd5b833561129f8161121a565b925060208401356112af8161121a565b929592945050506040919091013590565b634e487b7160e01b600052604160045260246000fd5b600082601f8301126112e757600080fd5b813567ffffffffffffffff80821115611302576113026112c0565b604051601f8301601f19908116603f0116810190828211818310171561132a5761132a6112c0565b8160405283815286602085880101111561134357600080fd5b836020870160208301376000602085830101528094505050505092915050565b6000806040838503121561137657600080fd5b823567ffffffffffffffff81111561138d57600080fd5b611399858286016112d6565b92505060208301356113aa8161121a565b809150509250929050565b6000806000606084860312156113ca57600080fd5b833567ffffffffffffffff8111156113e157600080fd5b6113ed868287016112d6565b93505060208401356113fe8161121a565b9150604084013561140e8161121a565b809150509250925092565b6000806040838503121561142c57600080fd5b82356114378161121a565b915060208301356113aa8161121a565b600181811c9082168061145b57607f821691505b60208210810361147b57634e487b7160e01b600052602260045260246000fd5b50919050565b634e487b7160e01b600052601260045260246000fd5b634e487b7160e01b600052601160045260246000fd5b6000826114bc576114bc611481565b500490565b808201808211156104d8576104d8611497565b80820281158282048414176104d8576104d8611497565b6000602082840312156114fd57600080fd5b8151801515811461127857600080fd5b60ff81811683821601908111156104d8576104d8611497565b818103818111156104d8576104d8611497565b818103600083128015838313168383128216171561155957611559611497565b5092915050565b60008261156f5761156f611481565b600160ff1b82146000198414161561158957611589611497565b500590565b6000600182016115a0576115a0611497565b506001019056fea2646970667358221220d308ec1f886dfbbdd05be4ca1d51f9438f082cf25a202417268d6f43f0e5e79364736f6c63430008180033",
        "linkReferences": {}
    },
    "methodIdentifiers": {
        "BLOCKS_PER_YEAR()": "d37db1d2",
        "MAX_HALVINGS()": "36f1e6c0",
        "TAIL_EMISSION_PERCENTAGE()": "dcb157a6",
        "allowance(address,address)": "dd62ed3e",
        "approve(address,uint256)": "095ea7b3",
        "balanceOf(address)": "70a08231",
        "calculateTarget()": "1cfce386",
        "dampeningFactor()": "7f3e212d",
        "decimals()": "313ce567",
        "decreaseAllowance(address,uint256)": "a457c2d7",
        "difficulty()": "19cae462",
        "getCurrentReward()": "8aec8542",
        "halvingCount()": "fc84d913",
        "halvingInterval()": "6a47aa06",
        "increaseAllowance(address,uint256)": "39509351",
        "lastMintTime()": "9d463520",
        "mine(bytes,address,address)": "d9535172",
        "miningReward()": "4ac2d103",
        "name()": "06fdde03",
        "nextHalvingAt()": "016a6241",
        "owner()": "8da5cb5b",
        "recoverSigner(bytes,address)": "adeb0d88",
        "renounceOwnership()": "715018a6",
        "symbol()": "95d89b41",
        "totalSupply()": "18160ddd",
        "transfer(address,uint256)": "a9059cbb",
        "transferFrom(address,address,uint256)": "23b872dd",
        "transferOwnership(address)": "f2fde38b",
        "usedNonces(address)": "e698fbcb",
        "verifyPoW(address)": "1ba489ea",
        "withdrawERC20(address,uint256)": "a1db9782",
        "withdrawERC721(address,uint256)": "f3e414f8",
        "withdrawETH(address)": "690d8320"
    },
    "id": 7
}